{
  "_format": "hh-sol-artifact-1",
  "contractName": "MyTokenBSC",
  "sourceName": "contracts/MyTokenBSC.sol",
  "abi": [
    {
      "inputs": [],
      "stateMutability": "nonpayable",
      "type": "constructor"
    },
    {
      "inputs": [
        {
          "internalType": "address",
          "name": "account",
          "type": "address"
        }
      ],
      "name": "balanceOf",
      "outputs": [
        {
          "internalType": "uint256",
          "name": "",
          "type": "uint256"
        }
      ],
      "stateMutability": "view",
      "type": "function"
    },
    {
      "inputs": [
        {
          "internalType": "address",
          "name": "to",
          "type": "address"
        },
        {
          "internalType": "uint256",
          "name": "amount",
          "type": "uint256"
        }
      ],
      "name": "burn",
      "outputs": [],
      "stateMutability": "nonpayable",
      "type": "function"
    },
    {
      "inputs": [],
      "name": "decimals",
      "outputs": [
        {
          "internalType": "uint8",
          "name": "",
          "type": "uint8"
        }
      ],
      "stateMutability": "view",
      "type": "function"
    },
    {
      "inputs": [
        {
          "internalType": "address",
          "name": "to",
          "type": "address"
        },
        {
          "internalType": "uint256",
          "name": "amount",
          "type": "uint256"
        }
      ],
      "name": "mint",
      "outputs": [],
      "stateMutability": "nonpayable",
      "type": "function"
    },
    {
      "inputs": [],
      "name": "name",
      "outputs": [
        {
          "internalType": "string",
          "name": "",
          "type": "string"
        }
      ],
      "stateMutability": "view",
      "type": "function"
    },
    {
      "inputs": [],
      "name": "owner",
      "outputs": [
        {
          "internalType": "address",
          "name": "",
          "type": "address"
        }
      ],
      "stateMutability": "view",
      "type": "function"
    },
    {
      "inputs": [],
      "name": "symbol",
      "outputs": [
        {
          "internalType": "string",
          "name": "",
          "type": "string"
        }
      ],
      "stateMutability": "view",
      "type": "function"
    },
    {
      "inputs": [],
      "name": "totalSupply",
      "outputs": [
        {
          "internalType": "uint256",
          "name": "",
          "type": "uint256"
        }
      ],
      "stateMutability": "view",
      "type": "function"
    },
    {
      "inputs": [
        {
          "internalType": "address",
          "name": "to",
          "type": "address"
        },
        {
          "internalType": "uint256",
          "name": "amount",
          "type": "uint256"
        }
      ],
      "name": "transfer",
      "outputs": [],
      "stateMutability": "nonpayable",
      "type": "function"
    }
  ],
  "bytecode": "0x60806040526040518060400160405280601081526020017f4d79204861726468617420546f6b656e000000000000000000000000000000008152506000908051906020019061004f929190610160565b506040518060400160405280600381526020017f4d485400000000000000000000000000000000000000000000000000000000008152506001908051906020019061009b929190610160565b50600a600260006101000a81548160ff021916908360ff1602179055506a084595161401484a0000006003553480156100d357600080fd5b50600354600560003373ffffffffffffffffffffffffffffffffffffffff1673ffffffffffffffffffffffffffffffffffffffff1681526020019081526020016000208190555033600460006101000a81548173ffffffffffffffffffffffffffffffffffffffff021916908373ffffffffffffffffffffffffffffffffffffffff160217905550610264565b82805461016c90610203565b90600052602060002090601f01602090048101928261018e57600085556101d5565b82601f106101a757805160ff19168380011785556101d5565b828001600101855582156101d5579182015b828111156101d45782518255916020019190600101906101b9565b5b5090506101e291906101e6565b5090565b5b808211156101ff5760008160009055506001016101e7565b5090565b6000600282049050600182168061021b57607f821691505b6020821081141561022f5761022e610235565b5b50919050565b7f4e487b7100000000000000000000000000000000000000000000000000000000600052602260045260246000fd5b610a1b806102736000396000f3fe608060405234801561001057600080fd5b50600436106100935760003560e01c806370a082311161006657806370a082311461010e5780638da5cb5b1461013e57806395d89b411461015c5780639dc29fac1461017a578063a9059cbb1461019657610093565b806306fdde031461009857806318160ddd146100b6578063313ce567146100d457806340c10f19146100f2575b600080fd5b6100a06101b2565b6040516100ad919061075c565b60405180910390f35b6100be610240565b6040516100cb91906107be565b60405180910390f35b6100dc610246565b6040516100e991906107d9565b60405180910390f35b61010c6004803603810190610107919061061f565b610259565b005b610128600480360381019061012391906105f6565b6102b3565b60405161013591906107be565b60405180910390f35b6101466102fc565b6040516101539190610741565b60405180910390f35b610164610322565b604051610171919061075c565b60405180910390f35b610194600480360381019061018f919061061f565b6103b0565b005b6101b060048036038101906101ab919061061f565b61049a565b005b600080546101bf90610916565b80601f01602080910402602001604051908101604052809291908181526020018280546101eb90610916565b80156102385780601f1061020d57610100808354040283529160200191610238565b820191906000526020600020905b81548152906001019060200180831161021b57829003601f168201915b505050505081565b60035481565b600260009054906101000a900460ff1681565b80600560008473ffffffffffffffffffffffffffffffffffffffff1673ffffffffffffffffffffffffffffffffffffffff16815260200190815260200160002060008282546102a89190610810565b925050819055505050565b6000600560008373ffffffffffffffffffffffffffffffffffffffff1673ffffffffffffffffffffffffffffffffffffffff168152602001908152602001600020549050919050565b600460009054906101000a900473ffffffffffffffffffffffffffffffffffffffff1681565b6001805461032f90610916565b80601f016020809104026020016040519081016040528092919081815260200182805461035b90610916565b80156103a85780601f1061037d576101008083540402835291602001916103a8565b820191906000526020600020905b81548152906001019060200180831161038b57829003601f168201915b505050505081565b3373ffffffffffffffffffffffffffffffffffffffff16600460009054906101000a900473ffffffffffffffffffffffffffffffffffffffff1673ffffffffffffffffffffffffffffffffffffffff1614610440576040517f08c379a00000000000000000000000000000000000000000000000000000000081526004016104379061079e565b60405180910390fd5b80600560008473ffffffffffffffffffffffffffffffffffffffff1673ffffffffffffffffffffffffffffffffffffffff168152602001908152602001600020600082825461048f9190610866565b925050819055505050565b80600560003373ffffffffffffffffffffffffffffffffffffffff1673ffffffffffffffffffffffffffffffffffffffff16815260200190815260200160002054101561051c576040517f08c379a00000000000000000000000000000000000000000000000000000000081526004016105139061077e565b60405180910390fd5b80600560003373ffffffffffffffffffffffffffffffffffffffff1673ffffffffffffffffffffffffffffffffffffffff168152602001908152602001600020600082825461056b9190610866565b9250508190555080600560008473ffffffffffffffffffffffffffffffffffffffff1673ffffffffffffffffffffffffffffffffffffffff16815260200190815260200160002060008282546105c19190610810565b925050819055505050565b6000813590506105db816109b7565b92915050565b6000813590506105f0816109ce565b92915050565b60006020828403121561060857600080fd5b6000610616848285016105cc565b91505092915050565b6000806040838503121561063257600080fd5b6000610640858286016105cc565b9250506020610651858286016105e1565b9150509250929050565b6106648161089a565b82525050565b6000610675826107f4565b61067f81856107ff565b935061068f8185602086016108e3565b610698816109a6565b840191505092915050565b60006106b06011836107ff565b91507f4e6f7420656e6f75676820746f6b656e730000000000000000000000000000006000830152602082019050919050565b60006106f06011836107ff565b91507f6e6f7420616c6c6f7720746f206d696e740000000000000000000000000000006000830152602082019050919050565b61072c816108cc565b82525050565b61073b816108d6565b82525050565b6000602082019050610756600083018461065b565b92915050565b60006020820190508181036000830152610776818461066a565b905092915050565b60006020820190508181036000830152610797816106a3565b9050919050565b600060208201905081810360008301526107b7816106e3565b9050919050565b60006020820190506107d36000830184610723565b92915050565b60006020820190506107ee6000830184610732565b92915050565b600081519050919050565b600082825260208201905092915050565b600061081b826108cc565b9150610826836108cc565b9250827fffffffffffffffffffffffffffffffffffffffffffffffffffffffffffffffff0382111561085b5761085a610948565b5b828201905092915050565b6000610871826108cc565b915061087c836108cc565b92508282101561088f5761088e610948565b5b828203905092915050565b60006108a5826108ac565b9050919050565b600073ffffffffffffffffffffffffffffffffffffffff82169050919050565b6000819050919050565b600060ff82169050919050565b60005b838110156109015780820151818401526020810190506108e6565b83811115610910576000848401525b50505050565b6000600282049050600182168061092e57607f821691505b6020821081141561094257610941610977565b5b50919050565b7f4e487b7100000000000000000000000000000000000000000000000000000000600052601160045260246000fd5b7f4e487b7100000000000000000000000000000000000000000000000000000000600052602260045260246000fd5b6000601f19601f8301169050919050565b6109c08161089a565b81146109cb57600080fd5b50565b6109d7816108cc565b81146109e257600080fd5b5056fea2646970667358221220b6025423bf551ae6c19db0c0a7adfa4501462b4a72b83c43b9ac355ae1c688bf64736f6c63430008000033",
  "linkReferences": {},
  "deployedLinkReferences": {}
}