{
  "_format": "hh-sol-artifact-1",
  "contractName": "MyToken",
  "sourceName": "contracts/MyToken.sol",
  "abi": [
    {
      "inputs": [],
      "stateMutability": "nonpayable",
      "type": "constructor"
    },
    {
      "anonymous": false,
      "inputs": [
        {
          "indexed": false,
          "internalType": "address",
          "name": "from",
          "type": "address"
        },
        {
          "indexed": false,
          "internalType": "address",
          "name": "to",
          "type": "address"
        },
        {
          "indexed": false,
          "internalType": "uint256",
          "name": "amount",
          "type": "uint256"
        }
      ],
      "name": "transfer",
      "type": "event"
    },
    {
      "inputs": [
        {
          "internalType": "address",
          "name": "to",
          "type": "address"
        },
        {
          "internalType": "uint256",
          "name": "amount",
          "type": "uint256"
        }
      ],
      "name": "Transfer",
      "outputs": [],
      "stateMutability": "payable",
      "type": "function"
    },
    {
      "inputs": [
        {
          "internalType": "address",
          "name": "account",
          "type": "address"
        }
      ],
      "name": "balanceOf",
      "outputs": [
        {
          "internalType": "uint256",
          "name": "",
          "type": "uint256"
        }
      ],
      "stateMutability": "view",
      "type": "function"
    },
    {
      "inputs": [
        {
          "internalType": "address",
          "name": "to",
          "type": "address"
        },
        {
          "internalType": "uint256",
          "name": "amount",
          "type": "uint256"
        }
      ],
      "name": "burn",
      "outputs": [],
      "stateMutability": "nonpayable",
      "type": "function"
    },
    {
      "inputs": [],
      "name": "decimals",
      "outputs": [
        {
          "internalType": "uint8",
          "name": "",
          "type": "uint8"
        }
      ],
      "stateMutability": "view",
      "type": "function"
    },
    {
      "inputs": [
        {
          "internalType": "address",
          "name": "to",
          "type": "address"
        },
        {
          "internalType": "uint256",
          "name": "amount",
          "type": "uint256"
        }
      ],
      "name": "mint",
      "outputs": [],
      "stateMutability": "nonpayable",
      "type": "function"
    },
    {
      "inputs": [],
      "name": "name",
      "outputs": [
        {
          "internalType": "string",
          "name": "",
          "type": "string"
        }
      ],
      "stateMutability": "view",
      "type": "function"
    },
    {
      "inputs": [],
      "name": "owner",
      "outputs": [
        {
          "internalType": "address",
          "name": "",
          "type": "address"
        }
      ],
      "stateMutability": "view",
      "type": "function"
    },
    {
      "inputs": [],
      "name": "symbol",
      "outputs": [
        {
          "internalType": "string",
          "name": "",
          "type": "string"
        }
      ],
      "stateMutability": "view",
      "type": "function"
    },
    {
      "inputs": [],
      "name": "totalSupply",
      "outputs": [
        {
          "internalType": "uint256",
          "name": "",
          "type": "uint256"
        }
      ],
      "stateMutability": "view",
      "type": "function"
    }
  ],
  "bytecode": "0x60806040526040518060400160405280601081526020017f4d79204861726468617420546f6b656e00000000000000000000000000000000815250600090805190602001906200005192919062000166565b506040518060400160405280600381526020017f4d48540000000000000000000000000000000000000000000000000000000000815250600190805190602001906200009f92919062000166565b50600a600260006101000a81548160ff021916908360ff1602179055506a084595161401484a000000600355348015620000d857600080fd5b50600354600560003373ffffffffffffffffffffffffffffffffffffffff1673ffffffffffffffffffffffffffffffffffffffff1681526020019081526020016000208190555033600460006101000a81548173ffffffffffffffffffffffffffffffffffffffff021916908373ffffffffffffffffffffffffffffffffffffffff1602179055506200027b565b828054620001749062000216565b90600052602060002090601f016020900481019282620001985760008555620001e4565b82601f10620001b357805160ff1916838001178555620001e4565b82800160010185558215620001e4579182015b82811115620001e3578251825591602001919060010190620001c6565b5b509050620001f39190620001f7565b5090565b5b8082111562000212576000816000905550600101620001f8565b5090565b600060028204905060018216806200022f57607f821691505b602082108114156200024657620002456200024c565b5b50919050565b7f4e487b7100000000000000000000000000000000000000000000000000000000600052602260045260246000fd5b610b23806200028b6000396000f3fe6080604052600436106100865760003560e01c806369ca02dd1161005957806369ca02dd1461013557806370a08231146101515780638da5cb5b1461018e57806395d89b41146101b95780639dc29fac146101e457610086565b806306fdde031461008b57806318160ddd146100b6578063313ce567146100e157806340c10f191461010c575b600080fd5b34801561009757600080fd5b506100a061020d565b6040516100ad9190610864565b60405180910390f35b3480156100c257600080fd5b506100cb61029b565b6040516100d891906108c6565b60405180910390f35b3480156100ed57600080fd5b506100f66102a1565b60405161010391906108e1565b60405180910390f35b34801561011857600080fd5b50610133600480360381019061012e91906106f0565b6102b4565b005b61014f600480360381019061014a91906106f0565b61039e565b005b34801561015d57600080fd5b50610178600480360381019061017391906106c7565b61050b565b60405161018591906108c6565b60405180910390f35b34801561019a57600080fd5b506101a3610554565b6040516101b09190610812565b60405180910390f35b3480156101c557600080fd5b506101ce61057a565b6040516101db9190610864565b60405180910390f35b3480156101f057600080fd5b5061020b600480360381019061020691906106f0565b610608565b005b6000805461021a90610a1e565b80601f016020809104026020016040519081016040528092919081815260200182805461024690610a1e565b80156102935780601f1061026857610100808354040283529160200191610293565b820191906000526020600020905b81548152906001019060200180831161027657829003601f168201915b505050505081565b60035481565b600260009054906101000a900460ff1681565b3373ffffffffffffffffffffffffffffffffffffffff16600460009054906101000a900473ffffffffffffffffffffffffffffffffffffffff1673ffffffffffffffffffffffffffffffffffffffff1614610344576040517f08c379a000000000000000000000000000000000000000000000000000000000815260040161033b906108a6565b60405180910390fd5b80600560008473ffffffffffffffffffffffffffffffffffffffff1673ffffffffffffffffffffffffffffffffffffffff16815260200190815260200160002060008282546103939190610918565b925050819055505050565b80600560003373ffffffffffffffffffffffffffffffffffffffff1673ffffffffffffffffffffffffffffffffffffffff168152602001908152602001600020541015610420576040517f08c379a000000000000000000000000000000000000000000000000000000000815260040161041790610886565b60405180910390fd5b80600560003373ffffffffffffffffffffffffffffffffffffffff1673ffffffffffffffffffffffffffffffffffffffff168152602001908152602001600020600082825461046f919061096e565b9250508190555080600560008473ffffffffffffffffffffffffffffffffffffffff1673ffffffffffffffffffffffffffffffffffffffff16815260200190815260200160002060008282546104c59190610918565b925050819055507fbeabacc8ffedac16e9a60acdb2ca743d80c2ebb44977a93fa8e483c74d2b35a83383836040516104ff9392919061082d565b60405180910390a15050565b6000600560008373ffffffffffffffffffffffffffffffffffffffff1673ffffffffffffffffffffffffffffffffffffffff168152602001908152602001600020549050919050565b600460009054906101000a900473ffffffffffffffffffffffffffffffffffffffff1681565b6001805461058790610a1e565b80601f01602080910402602001604051908101604052809291908181526020018280546105b390610a1e565b80156106005780601f106105d557610100808354040283529160200191610600565b820191906000526020600020905b8154815290600101906020018083116105e357829003601f168201915b505050505081565b80600560003373ffffffffffffffffffffffffffffffffffffffff1673ffffffffffffffffffffffffffffffffffffffff1681526020019081526020016000206000828254610657919061096e565b925050819055507fbeabacc8ffedac16e9a60acdb2ca743d80c2ebb44977a93fa8e483c74d2b35a83383836040516106919392919061082d565b60405180910390a15050565b6000813590506106ac81610abf565b92915050565b6000813590506106c181610ad6565b92915050565b6000602082840312156106d957600080fd5b60006106e78482850161069d565b91505092915050565b6000806040838503121561070357600080fd5b60006107118582860161069d565b9250506020610722858286016106b2565b9150509250929050565b610735816109a2565b82525050565b6000610746826108fc565b6107508185610907565b93506107608185602086016109eb565b61076981610aae565b840191505092915050565b6000610781601183610907565b91507f4e6f7420656e6f75676820746f6b656e730000000000000000000000000000006000830152602082019050919050565b60006107c1601183610907565b91507f6e6f7420616c6c6f7720746f206d696e740000000000000000000000000000006000830152602082019050919050565b6107fd816109d4565b82525050565b61080c816109de565b82525050565b6000602082019050610827600083018461072c565b92915050565b6000606082019050610842600083018661072c565b61084f602083018561072c565b61085c60408301846107f4565b949350505050565b6000602082019050818103600083015261087e818461073b565b905092915050565b6000602082019050818103600083015261089f81610774565b9050919050565b600060208201905081810360008301526108bf816107b4565b9050919050565b60006020820190506108db60008301846107f4565b92915050565b60006020820190506108f66000830184610803565b92915050565b600081519050919050565b600082825260208201905092915050565b6000610923826109d4565b915061092e836109d4565b9250827fffffffffffffffffffffffffffffffffffffffffffffffffffffffffffffffff0382111561096357610962610a50565b5b828201905092915050565b6000610979826109d4565b9150610984836109d4565b92508282101561099757610996610a50565b5b828203905092915050565b60006109ad826109b4565b9050919050565b600073ffffffffffffffffffffffffffffffffffffffff82169050919050565b6000819050919050565b600060ff82169050919050565b60005b83811015610a095780820151818401526020810190506109ee565b83811115610a18576000848401525b50505050565b60006002820490506001821680610a3657607f821691505b60208210811415610a4a57610a49610a7f565b5b50919050565b7f4e487b7100000000000000000000000000000000000000000000000000000000600052601160045260246000fd5b7f4e487b7100000000000000000000000000000000000000000000000000000000600052602260045260246000fd5b6000601f19601f8301169050919050565b610ac8816109a2565b8114610ad357600080fd5b50565b610adf816109d4565b8114610aea57600080fd5b5056fea264697066735822122003b941df551d0bbcc323634ad28ea948f2076f56a77d4aba0cc05a6ccbc33f8f64736f6c63430008000033",
  "linkReferences": {},
  "deployedLinkReferences": {}
}